:100000000C94B7010C94DF010C94DF010C94DF0118
:100010000C94DF010C94DF010C94DF010C94DF01E0
:100020000C94DF010C94DF010C94282D0C94DB2B35
:100030000C94DF010C94DF010C94DF010C94DF01C0
:100040000C94DF010C94DF010C94DF010C94DF01B0
:100050000C94DF010C94DF010C94DF010C94A323BA
:100060000C94DF010C947C270C94BF270C94DF01C7
:100070000C94DF010C94DF010C94DF010C94DF0180
:100080000C94DF010C94DF010C94DF010C94DF0170
:100090000C94F70A0C94DF010C94DF010C94DF013F
:1000A0000C94DF010C94DF010C94DF011C021F0291
:1000B0002202250228023B022B022E023B023B02B7
:1000C000310236023902B924BC24AF24B324DD2422
:1000D000DD24DD24C024C424C824CE24D224DD247D
:1000E000D824084AD73B3BCE016E84BCBFFDC12F4C
:1000F0003D6C74319ABD56833DDA3D00C77F11BE19
:10010000D9E4BB4C3E916BAAAABE000000803F051B
:10011000A84CCDB2D44EB93836A9020C50B991864C
:1001200088083CA6AAAA2ABE000000803F00070655
:1001300005040100080A0B0C0D090000000200086C
:100140000E0000030401000B00000000000000008E
:100150000000000000000000040802011040804080
:1001600010204080408008020401804020100201DD
:10017000108010204040040404040403040502021B
:100180000202040302020202060606060606040430
:1001900002020204000000002300260029002C00B7
:1001A0002F0000000000250028002B002E00310049
:1001B00000000000240027002A002D003000080B5A
:1001C0000002020201000904000001020200000511
:1001D000240010010524010101042402060524065F
:1001E00000010705810310004009040100020A0014
:1001F00000000705020240000007058302400000DE
:1002000000C18081C112010002020000404123367A
:1002100080000101020001120100020000004041C3
:1002200023368000010102000118034100720064BE
:1002300000750069006E006F0020004C004C004308
:10024000002203410072006400750069006E006FB7
:100250000020004C0065006F006E006100720064B9
:10026000006F000403090400000000000000002AE1
:100270002B2800000000000000000000000000002B
:10028000000000000000002C9EB4A0A1A2A434A68F
:10029000A7A5AE362D3738271E1F2021222324255F
:1002A00026B333B62EB7B89F8485868788898A8B14
:1002B0008C8D8E8F909192939495969798999A9B06
:1002C0009C9D2F3130A3AD350405060708090A0BA4
:1002D0000C0D0E0F101112131415161718191A1BE6
:1002E0001C1DAFB1B0B500090402000103000000FD
:1002F0000921010100012265000705840340000176
:1003000005010902A1010901A100850105091901E1
:1003100029031500250195037501810295017505D5
:10032000810305010930093109381581257F7508D8
:1003300095038106C0C005010906A10185020507D4
:1003400019E029E71500250175019508810295013D
:1003500075088103950675081500256505071900C0
:1003600029658100C000810DFA272E29B02E1124A5
:100370001FBECFEFDAE0DEBFCDBF13E0A0E0B1E0FB
:10038000E2EBF6E602C005900D92AA30B107D9F76C
:1003900025E0AAE0B3E001C01D92A731B207E1F762
:1003A00011E0C7EBD1E004C02197FE010E94D232D8
:1003B000C33BD107C9F70E94BB2E0C9457330C9452
:1003C0000000AAE1B0E0E7EEF1E00C9401330E94F6
:1003D000660781E090E00E943C1C0E942907109271
:1003E0000B0310920A03CE0101967C018AE5882E48
:1003F00081E0982E90E6A92E91E0B92E26E6C22E35
:1004000021E0D22E3BE6632E31E0732E4FE6442EE0
:1004100041E0542E54E7252E51E0352E81E08093A3
:100420000101E0910A03F0910B03ED30F10518F59D
:10043000EA5AFF4F0C94D2320E94DF0E1CC00E9479
:10044000022119C00E94BB1216C00E942F1013C0B7
:100450000E94861110C00E9402110DC00E94511509
:100460000AC088EE93E00E94851C05C00E94722598
:1004700002C00E94471884E18093010104E010E06B
:1004800080910101482F682F0E94D61E0E94661F8E
:1004900062E370E080E090E00E941E2440E060E0B3
:1004A00080E00E94D61E0E94661F62E370E080E03A
:1004B00090E00E941E240150110911F742E050E023
:1004C00062E370E082E390E00E94A1060E9495043E
:1004D00040E060E080E00E94D61E0E94661F0E94FD
:1004E00095048AE1F70111928A95E9F79A82898247
:1004F000BC82AB82DE82CD8278866F825A86498644
:100500003C862B868AE791E09E878D87E0E8F1E0C4
:10051000F88BEF8785E891E09A8B898BEAE8F1E028
:10052000FC8BEB8B8FE891E09E8B8D8BE5E9F1E006
:10053000F88FEF8B60910A0370910B03A7018DE098
:1005400090E00E94E30990930B0380930A030E94BA
:10055000950464CF0895CF93DF93EB01DA01F9019D
:10056000853540F4982F990F890F888380958C9357
:10057000108213C08A3A48F48555982F990F890F35
:10058000982F909598831C9207C08A5A1882982FAA
:10059000990F890F8C9380958083DF91CF91089577
:1005A000A0E0B0E0E6EDF2E00C9405334C015B0115
:1005B0006A01FA01E080F12CFB01008110E0FC01EE
:1005C000C081D0E0C8010C171D070CF4CE01370123
:1005D000E816F9060CF43C01B301072C000C880B5B
:1005E000990B0E949B3020E030E0A9010E94EC2F83
:1005F0001816E4F5C801C017D1070CF4CE01970115
:100600008E159F050CF49C01B301621B730BC6157C
:10061000D7055CF0C8018E199F0955E0880F991F16
:100620005A95E1F70E947D321CC0061517056CF043
:10063000C7018C1B9D0B45E0880F991F4A95E1F778
:100640000E947D32605C7F4F0CC0CE01801B910BFD
:1006500035E0880F991F3A95E1F70E947D32605886
:100660007F4F77FF05C060547F4F02C060E070E0AD
:10067000CB01992723E0880F991F2A95E1F762950E
:10068000669567706230D9F048F4662381F0613076
:1006900019F58095F40180838FEF0CC06330A9F0C9
:1006A0006430D1F4F4018083F501108213C09FEF10
:1006B000F4019083F5018083F601108215C0F401E6
:1006C00010829FEFF50190830DC0F4011082809598
:1006D000F50180838FEF06C09FEFF4019083F50151
:1006E00010828095F6018083CDB7DEB7EEE00C94E2
:1006F0002133A0E0B0E0EFE7F3E00C940A33D82E0A
:10070000C62EB42EE90140E060E080E00E94D61ED3
:10071000C017D10744F42B2D4C2D6D2D8C2F0E942A
:10072000BF1E2196F5CF0E94351FB701FF0C880B25
:10073000990B0E941E24CDB7DEB7E9E00C94263356
:100740008AE08093010140E060E080E00E94D61ED4
:1007500020E040E06FEF86E00E94BF1E20E04FEFF8
:1007600060E087E00E94BF1E2FEF40E060E088E07D
:100770000E94BF1E20E840E860E889E00E94BF1E9A
:100780000E94351F10926E00F89481E08093E00083
:1007900080E28093D8008FE19EE40197F1F700C0DA
:1007A000000082E084BF48E350E060E070E080E059
:1007B00090E0DC01E82FF42F099408958F929F9226
:1007C000AF92BF92CF92DF92EF92FF9280E00E94B1
:1007D0004D1C0E94ED236B017C0180915A03909186
:1007E0005B03A0915C03B0915D0320911C013091EB
:1007F0001D01273B3340ACF0892B8A2B8B2B99F5BD
:10080000C0924A03D0924B03E0924C03F0924D0306
:10081000C0925A03D0925B03E0925C03F0925D03B6
:1008200022C00097A105B105F1F09601281B390BF4
:10083000C0924A03D0924B03E0924C03F0924D03D6
:100840002031310544F0D0925703C09256033093C3
:1008500059032093580310925A0310925B0310928D
:100860005C0310925D038090520390905303A0901C
:100870005403B09055038AE00E944925892BE9F47E
:100880008091520390915303A0915403B09155036A
:10089000892B8A2B8B2B89F4C0924A03D0924B036D
:1008A000E0924C03F0924D03C0925203D092530356
:1008B000E0925403F09255032FC08AE00E9449252C
:1008C000892B51F18091520390915303A0915403CD
:1008D000B0915503892B8A2B8B2BF1F0C601881917
:1008E0009909C0924A03D0924B03E0924C03F092D4
:1008F0004D038031910544F0D0924F03C0924E03D6
:10090000909351038093500310925203109253031B
:100910001092540310925503FF90EF90DF90CF9008
:10092000BF90AF909F908F9008950E94DE038091BA
:10093000520390915303A0915403B0915503892B16
:100940008A2B8B2B91F780915A0390915B03A09196
:100950005C03B0915D03892B8A2B8B2B31F71092AE
:100960005903109258031092570310925603109295
:100970005203109253031092540310925503109295
:1009800051031092500310924F0310924E0308959A
:10099000A6E0B0E0EEECF4E00C94013380915A0351
:1009A00090915B03A0915C03B0915D03892B8A2B2E
:1009B0008B2B09F440C10E94ED2300915A03109142
:1009C0005B0320915C0330915D03DC01CB01801B54
:1009D000910BA20BB30B89359240A105B10508F428
:1009E0002AC10E94ED0A1A821B821D821E8211E01A
:1009F000198382E08C83CE0101960E94950C10939E
:100A00000101E12CF12C0FEF1FEF412C512C320191
:100A100094E6292E312C61E070E080E090E00E94A5
:100A20001E240E94DE0380915A0390915B03A091E3
:100A30005C03B0915D03892B8A2B8B2B39F4121444
:100A400013043CF481E0281A310803C074E6272E11
:100A5000312C0E948C0B80917E0390917F0364EF78
:100A6000862E99249394881A990A092C000CAA08B6
:100A7000BB08ADE3B0E0A30192010E94EE32860E06
:100A8000971EA81EB91EC501B4012EE330E040E058
:100A900050E00E94B33229013A01C501B4012AE7AE
:100AA00038E040E050E00E94B3322B3F9FEF39071F
:100AB0000CF45CC037FD06C02F3031052CF02FE060
:100AC00030E002C020E030E0F901EE5FFE4FE08050
:100AD000F12CE114F10409F4A3C0E016F10639F495
:100AE000E12CF12C2114310409F095CF29C002E04A
:100AF00011E02FE0D22EF80181918F019091000139
:100B0000682F981708F4692F603108F460E190E0CD
:100B1000E816F9061CF0262F462F03C020E040E01F
:100B200060E08D2D0E94BF1EDA94FFEFDF12E3CF4D
:100B30000E94351F88EC90E00E9444248701D0CFAA
:100B40000115110511F40E943E1E0093010181E080
:100B5000809349030E94950440E060E080E00E9499
:100B6000D61E0E94351F0E947A0D65C040E060E0ED
:100B700080E00E94D61E2FEFE21AF20A8701117060
:100B80000F3F110531F028F0EFEFF1E0E01BF10B22
:100B90008F01680133E0D694C7943A95E1F72C2D84
:100BA0004C2D6C2D84E00E94BF1E5801B694A79472
:100BB000B694A7942A2D4A2D6A2D85E00E94BF1E67
:100BC000480196948794282D482D682D86E00E9430
:100BD000BF1E202F402F602F87E00E94BF1E202FB6
:100BE000402F602F88E00E94BF1E282D482D682DC1
:100BF00089E00E94BF1E2A2D4A2D6A2D8AE00E949C
:100C0000BF1E2C2D4C2D6C2D8BE00E94BF1E0E9410
:100C1000351F88EC90E00E94442400E010E062CF91
:100C200040E060E080E00E94D61EEE24E394F12CC8
:100C300001E010E0AECF2696E2E10C941D330F9355
:100C40001F93CF93DF93C82F882311F161E086E0D3
:100C50000E941A258EE190E00E9444248C2F90E09F
:100C600023E0959587952A95E1F70FE110E0081BA1
:100C7000190BC0E0D0E0C017D10771F060E086E04A
:100C80000E941A2561E086E00E941A252196F3CF82
:100C900060E086E00E941A25DF91CF911F910F91AD
:100CA00008950F931F93CF93DF93C82F882311F1DB
:100CB00061E081E00E941A258EE190E00E944424C8
:100CC0008C2F90E023E0959587952A95E1F70FE129
:100CD00010E0081B190BC0E0D0E0C017D10771F07D
:100CE00060E081E00E941A2561E081E00E941A25FF
:100CF0002196F3CF60E081E00E941A25DF91CF9129
:100D00001F910F910895CF93DF93D62FC42F8F3F5C
:100D100031F061E0811160E08DE00E941A25DF3F33
:100D200031F061E0D11160E081E10E941A25CF3FEE
:100D300029F0CC2311F05D9801C05D9ADF91CF912D
:100D40000895A0E0B0E0E7EAF6E00C9407338A01EA
:100D5000C0E0D0E04C01990FAA08BB086B01770FE7
:100D6000EE08FF08C017D10794F460E08DE00E9400
:100D70001A25C501B4010E941E2461E08DE00E9485
:100D80001A25C701B6010E941E242196EBCFCDB7CC
:100D9000DEB7ECE00C942333CF92DF92EF92FF9218
:100DA0000F931F930E94DE030E94881A0E94ED2376
:100DB0000091520310915303209154033091550335
:100DC0000115110521053105B9F06B017C01C01A2F
:100DD000D10AE20AF30A41EDC41647E0D406E10461
:100DE000F10454F0109252031092530310925403E2
:100DF0001092550380E026C000914A0310914B03E6
:100E000020914C0330914D03DC01CB01801B910BF1
:100E1000A20BB30B813A9E40A541B10524F080910D
:100E2000D90080FF04C00E94C80481E00BC04AE0E2
:100E300050E062E370E082E390E00E94A1060E942D
:100E40003E1EF1CF1F910F91FF90EF90DF90CF905A
:100E5000089560E070E08BEF93E00E94662390E0DD
:100E60000895482F60E070E08BEF93E00E946A23C2
:100E70000895CF92DF92EF92FF92CF93DF93EB0131
:100E8000C82ED12CE12CF12C8CE0CC0CDD1CEE1CFE
:100E9000FF1C8A95D1F72CE030E0AB01C701B60109
:100EA0000E94E32280E1C80ED11CE11CF11CC88223
:100EB000D982EA82FB828FEF8C878D878E87DF91C4
:100EC000CF91FF90EF90DF90CF9008951F93CF9335
:100ED000DF9380E8809361001092610091E895BFF4
:100EE00085BF60E084E10E94DE2461E084E10E942D
:100EF0001A2560E085E00E941A2560E085E00E94E6
:100F0000DE2460E086E00E941A2560E081E00E9415
:100F10001A2561E081E00E94DE2461E086E00E9403
:100F2000DE2461E08BE00E941A2561E08BE00E94E4
:100F3000DE2461E08DE00E94DE2461E081E10E9418
:100F40001A2561E081E10E94DE245D9A60E08AE07A
:100F50000E94DE2461E08AE00E941A2560E088E0B9
:100F60000E94DE2460E089E00E94DE2460E080E0F0
:100F70000E94DE2461E080E00E941A2543E050E0F8
:100F800062E370E082E390E00E94A1060E94381FB5
:100F900080E090E00E943C1C60E875E28FEA94E0FB
:100FA0000E942D290E94392284E10E944925892B23
:100FB00011F482E005C08091D90080FF04C081E077
:100FC00080930C0302C010920C0381E08093010116
:100FD0008DE00E94390C90E08A32910521F1843C29
:100FE000910509F1873C9105F1F0C997E1F082E1A3
:100FF0000E94390CC82FD0E010E04C2F4170419571
:1010000020E064E6812F0E94BF1ED595C7951F5F23
:10101000183099F70E94661F61E070E080E090E070
:101020000E941E24F9CF6AE373E080E80E9439072A
:101030006BE273E081E80E9439076CE173E082E8BB
:101040000E9439076DE073E083E80E943907DF9161
:10105000CF911F910895A3E0B0E0E1E3F8E00C9494
:1010600009337C01142FFC018781869F6001879FD3
:10107000D00C1124960183E0369527958A95E1F7E7
:1010800080819181A281B381BC01CD01620F731F68
:10109000811D911D23E030E0AE014F5F5F4F0E9444
:1010A000E322F7E0CF22DD2481E001C0880FCA945B
:1010B000EAF7F701D484C584B6840781010F0131B2
:1010C00008F000E190E0EE24E394E90EE1E0F0E0C6
:1010D000EC0FFD1FE90FF11DA080F82E8F2D8A2146
:1010E00021F02B2D4C2D6D2D03C020E040E060E061
:1010F000812F0E94BF1E1F5F101728F4FF0C9E2D2A
:1011000081E061F7E0CF2396EAE00C942533CF939A
:10111000DF93EC013F81232F220F230F269FF00145
:10112000279FF00D112488819981AA81BB81BC0180
:10113000CD016E0F7F1F811D911DE42FF0E0DF01B7
:10114000A30FB11D51973CF020E130E02E1B3F0B67
:10115000322F330F230F30E0D3E04D9FA001112435
:1011600049545C4F0E94E322DF91CF910895342FC0
:10117000FC014185562F541B4581451790F0422FA5
:101180002681632F70E0529F600D711D1124248110
:10119000213029F0283129F40E94870808950E94FF
:1011A0002B080895CF93DF93EC01FB01CA016E81F8
:1011B00070E00E946932E60FF71F482F6081CE0170
:1011C0000E94B708DF91CF910895A8E0B0E0EBEE60
:1011D000F8E00C940D338B0120E03AE0E32EF12C83
:1011E000E1E0F0E0EC0FFD1FE20FF11DB7010E94FE
:1011F0007D32805D8083CB012F5F009789F7622F5E
:1012000070E0E1E0F0E0EC0FFD1FE60FF71FD80102
:1012100031978A2F801B821718F480818D93F8CF25
:10122000F801E60FF71F10822896E6E00C942933A8
:10123000A6E3B0E0EEE1F9E00C9404336C01562E25
:101240008A0119AA1AAA1BAA1CAA1DAA1EAA452B02
:1012500011F40AE313E0552051F087EBA82E83E048
:10126000B82ECE0101967C01DC01F50129C08091E8
:10127000500390915103892B09F0A1C0809158032C
:1012800090915903892B09F09AC080915203909153
:101290005303A0915403B0915503892B8A2B8B2BB8
:1012A00009F08DC080915A0390915B03A0915C037B
:1012B000B0915D03892B8A2B8B2B09F080C0CDCF99
:1012C00081918D9393E0E73EF907D1F7F6014F0145
:1012D0008C189D0881918111FACF80E8F8018487EC
:1012E00085878FEF86870E94ED0A19AA1AAA81E0E6
:1012F0008BAB82E08CAB8DAB3E01F1E36F0E711CCA
:10130000C3010E94950CF8018681880F889D802C6E
:1013100011248092980351100E9495040E94CC06DB
:101320008823C1F08091520390915303A0915403FC
:10133000B0915503892B8A2B8B2B61F480915A0332
:1013400090915B03A0915C03B0915D03892B8A2B84
:101350008B2B91F0F70181917F01F50181935F0162
:101360006E147F04B9F70E94351F0E947A0D552034
:1013700031F10E94950423C00E948C0B0E94E71358
:10138000409115014F3F81F04E3F41F0469550E0AE
:1013900020E0B601C8010E94D2080EC040E060E023
:1013A00080E00E94D61E08C0A7EBB3E0F701819150
:1013B0008D93E615F705D9F70E94FD1EAFCFE6968F
:1013C000EFE00C942033A0E0B0E0E9EEF9E00C94FB
:1013D00001337C01CB014A01B7010E947D32EC014F
:1013E00027E0222E312C270121E0421A5108CE019C
:1013F000B1010E947D32019680FF04C0609001011E
:10140000712C02C0612C712C81FF04C0C0900101BD
:10141000D12C02C0C12CD12C82FF04C0A0900101AC
:10142000B12C02C0A12CB12C00E010E0C017D107F4
:1014300029F42A2D4C2D662D8C2F04C020E040E08D
:1014400060E0802F0E94BF1E0F5F1F4F003111050B
:1014500069F70E94661F0E94CC06FE01EE0FFF1F77
:10146000E80DF91D20E030E040E050E060E08081D0
:1014700091810E9418098091580390915903892BFA
:1014800079F0209711F4820106C0CE010197B701CF
:101490000E947D328C01109259031092580301C0B2
:1014A0008E018091500390915103892B51F0C80116
:1014B0000196B7010E947D328C0110925103109267
:1014C00050038091520390915303A0915403B09123
:1014D0005503892B8A2B8B2BD1F10E94ED23209170
:1014E0005203309153034091540350915503DC0152
:1014F000CB01821B930BA40BB50B87329240A10545
:10150000B10528F184E0E82EF12C60910101262F2D
:10151000462F8C2F0E94BF1E0E94661F62E370E060
:1015200080E090E00E941E2420E040E060E08C2FEC
:101530000E94BF1E0E94661F62E370E080E090E0A0
:101540000E941E2481E0E81AF108F9F602C0E801C1
:101550004ECFC801CDB7DEB7E2E10C941D338FEA60
:1015600094E00E943528892BD1F38FEA94E00E9401
:1015700059280895CF93DF930E94AF0AC82FD0E077
:10158000DC2FCC270E94AF0A9E01282BC901DF91D6
:10159000CF910895ECEBF0E0808181608083089525
:1015A000880F809394036093930340939203109267
:1015B000850381E0809384030E94CA0A0E9444222A
:1015C000089580918403882329F081E090E00E94AF
:1015D0004424F7CF10926A03089586E0E4E6F3E02E
:1015E000AEE5B3E001900D928A95E1F708951F9260
:1015F0000F920FB60F9211242F933F938F939F93C7
:10160000EF93FF9380918403882309F457C08330BC
:10161000B9F038F4813051F0823049F5809193036C
:101620000BC0843031F0853069F021C08091940383
:1016300003C08091940381608093BB0085E80FC054
:1016400085EA0DC080919203813029F08091BC0021
:101650008F70806C04C08091BC008F708068809314
:10166000BC00809184038F5F8093840327C0E09146
:10167000850321E02E0F209385038091BB00F0E0CD
:10168000EA57FC4F808380919203281791F030E055
:1016900090E001972817390729F08091BC008F70DE
:1016A000806C04C08091BC008F7080688093BC0007
:1016B00005C085E98093BC0010928403FF91EF91EF
:1016C0009F918F913F912F910F900FBE0F901F9080
:1016D000189583FD02C091E001C092E084FF09C02B
:1016E00080FF03C09093770304C0292F2195209396
:1016F000770385FF09C081FF03C09093760304C080
:10170000292F21952093760386FF04C082FF9195AF
:10171000909375030895089580916A03882309F4CE
:101720006BC0909184039111A3C0843009F458C018
:1017300040F48130B1F0823009F05BC080918603C3
:1017400054C0863009F445C0803209F052C087E0A9
:10175000E6E8F3E0ABE6B3E001900D928A95E1F79D
:1017600048C0E6E8F3E0AEE7B3E0808190E0982F70
:1017700088272181822B34E0959587953A95E1F76A
:101780008D939D93329683E0EC38F80771F7809142
:101790008C0390918D03982789279827909379033C
:1017A0008093780380918E0390918F0398278927E7
:1017B000982790937B0380937A0380919003909174
:1017C000910398278927982790937D0380937C0322
:1017D00010C0809186038093740380918A0305C0B2
:1017E000809186038093740304C0809373030E94E6
:1017F000690B10926A0308958091720381110CC0E5
:1018000088E00E944925892B81F489E00E944925BE
:10181000892B71F182E00AC01092720347E060E008
:101820008FE60E94D00A80E221C081E0909164039B
:10183000981307C04CE061E08CE10E94D00A81E07F
:1018400015C090916603981307C045E06EE18CE1E6
:101850000E94D00A86E00AC090916503981308C0E0
:1018600041E062E28CE10E94D00A82E080936A0348
:101870000895CF93C82F0E9444220E944C2288E3EF
:101880000E9455220E944C228C2F0E9455220E94B9
:101890004C220E94442289E30E9455220E944C223D
:1018A0008FEF0E945B220E944C220E946922C82F67
:1018B0000E944C220E944822ECEBF0E080818B7F5A
:1018C00080838081846080838C2FCF910895CF9313
:1018D000DF93D82FC62F0E9444220E944C2288E317
:1018E0000E9455220E944C228D2F0E9455220E9458
:1018F0004C228C2F0E9455220E944C220E9448228A
:10190000DF91CF9108958AE20E94390C682F6E7F93
:101910008AE20E94670C08958AE20E94390C682FBF
:1019200061608AE20E94670C0895CF93DF93EC0117
:101930000E94E10A86E0FE01A4E6B3E001900D9268
:101940008A95E1F7809169038823D1F060E48BE206
:101950000E94670C61E070E080E090E00E941E242D
:1019600068EE8AE60E94670C63E08BE60E94670CD3
:1019700061E08CE60E94670C6BE789E60E94670CC9
:101980000E94830C60916703623021F0643011F093
:10199000683031F470E0759567957595679501C06D
:1019A00060E08EE00E94670C8AE20E94390C209170
:1019B0006803277098E0299F90011124877C682F85
:1019C000622B8AE20E94670C60E481E10E94670C4E
:1019D00064E183E10E94670C64E884E10E94670C83
:1019E00065E082E10E94670C6FE781E20E94670C6C
:1019F00060E283E20E94670C60E284E20E94670C6E
:101A000060E285E20E94670C60E386E20E94670C58
:101A10006DE086E20E94670C68E287E20E94670C34
:101A20006FEF88E20E94670C69E086E20E94670C13
:101A300060E287E20E94670C60E888E20E94670C1F
:101A400062E08CE20E94670C69E18DE20E94670C03
:101A500061E08EE20E94670C63E08FE00E94670CF9
:101A600064E18DE10E94670C68E08FE10E94670CE1
:101A70006FE28FE10E94670C65E080E20E94670CD4
:101A800061E080E20E94670C80916403882331F05A
:101A9000C1E0813009F0C0E061E002C0C0E060E078
:101AA00080916503882321F06860813009F4C86063
:101AB00080916603882321F06062813009F4C0625E
:101AC0008DE20E94670C6C2F8EE20E94670C809161
:101AD0006903811102C06FE101C06FE98BE50E94CB
:101AE000670C60E28CE50E94670C0E948C0CDF9111
:101AF000CF9108950E94E10A8EE593E00E94950C33
:101B00000895E4E6F3E010821182128213821482B7
:101B10001582EEE5F3E010821182128213821482A4
:101B200015820895CF93DF93D82FC62F0E944422A9
:101B30000E944C228EED0E9455220E944C228D2F35
:101B40000E9455220E944C228C2F0E9455220E94F6
:101B50004C220E944822ECEBF0E080818B7F808356
:101B6000808184608083DF91CF910895A0E0B0E010
:101B7000ECEBFDE00C940533EC016B015A014901DB
:101B8000370160E080E00E94920D8AE0E82EF12C9F
:101B9000C801B7010E947D3290E1699F800D112438
:101BA000682F81E00E94920DC401B7010E947D322E
:101BB00090E1699F800D1124682F82E00E94920DB0
:101BC000C501B7010E947D3290E1699F800D11240B
:101BD000682F84E00E94920DC601B7010E947D32F9
:101BE00090E1699F800D1124682F85E00E94920D7D
:101BF000CE01B7010E947D3290E1699F800D1124D2
:101C0000682F86E00E94920DC301B7010E947D32C9
:101C100090E1699F800D1124682F606880E00E9428
:101C2000920DCDB7DEB7EEE00C942133FC011082AB
:101C3000118212821382148215820895A0E0B0E00E
:101C4000E4E2FEE00C94073320E030E040E851E4A9
:101C50000E947F314B015C01CFE000E010E0B80151
:101C6000012E000C880B990B0E949B309B01AC014C
:101C7000C501B4010E940D2F6B017C0120E030E012
:101C8000A9010E94EC2F87FD11C020E030E040E860
:101C90005FE3C701B6010E947231181654F4C12CDB
:101CA000D12C80E8E82E8FE3F82E03C0C12CD12C74
:101CB0007601023011056CF420E030E04FE753E488
:101CC000C701B6010E947F310E946A3020E040E0E7
:101CD00028C005301105C4F420E030E045E253E4AB
:101CE000C701B6010E947F310E946A30D62F20E0E2
:101CF00030E04FE753E4C701B6010E947F310E94F4
:101D00006A3020E04D2F0DC020E030E04FE753E473
:101D1000C701B6010E947F310E946A30462F20E041
:101D200060E08C2F0E94BF1E0F5F1F4FC15008F054
:101D300096CF0E94661FCDB7DEB7ECE00C9423333C
:101D400020E030E04FE753E40E947F310E946A3088
:101D5000862F462F0E94D61E0E94661F0895CF929E
:101D6000DF92EF92FF92CF93DF936B017C01C0E093
:101D7000D0E0BE010D2E000C880B990B0E949B3009
:101D800020E030E040E05DE30E947F310E941E0EC3
:101D90006AE070E080E090E00E941E242196C0324C
:101DA000D10539F70E94ED236C0D7D1D8E1D9F1D01
:101DB000DF91CF91FF90EF90DF90CF900895A0E05A
:101DC000B0E0E5EEFEE00C940B3360E67AEE80E0E6
:101DD00090E00E94AF0E6B017C01C0E0D1E00E9458
:101DE0008B0B0E94CC06882309F459C080915803BC
:101DF00090915903892B21F01092590310925803A6
:101E00008091500390915103892B61F060E67AEE46
:101E100080E090E00E94AF0E6B017C0110925103B4
:101E2000109250030E94ED236C157D058E059F05D1
:101E3000A8F40E94ED23A7019601261B370B480B3F
:101E4000590BCA01B9010E94993020E030E64AE6F8
:101E500057E40E94F12F0E941E0E1AC00E94ED232B
:101E600097018601005F184D2F4F3F4F6017710794
:101E70008207930740F4CD276C2F70E080E090E05C
:101E80000E94993003C060E070E0CB010E94A00E78
:101E90006CE271E080E090E00E941E24A0CFCDB7FC
:101EA000DEB7E8E00C942733A0E0B0E0EAE5FFE01D
:101EB0000C940C33D82E162FF42EF21AC42FD1E026
:101EC000CF1569F08D2F8D2111F44E2D01C0402FBB
:101ED000612F8C2F0E949F1EDD0FC150F1CFCDB717
:101EE000DEB7E7E00C9428334F925F926F927F92B7
:101EF000AF92BF92CF92DF92FF920F931F93CF9337
:101F0000DF93F62E5A01122FC82FD0E02A01550F69
:101F100066087708C62ED12C60E0812F0E94AD1E86
:101F2000402F612F8C2F0E949F1E0E94661FA114BC
:101F3000B10421F0C301B2010E941E24CC15DD05BD
:101F400014F4219601C02197CC15DD0529F760E036
:101F5000812F0E94AD1E402F612F8F2D0E949F1E4A
:101F60000E94661FDF91CF911F910F91FF90DF902C
:101F7000CF90BF90AF907F906F905F904F900895FB
:101F8000A0E0B0E0E6ECFFE00C940333D82F162F6E
:101F90004A01F22E681710F4CFEF01C0C1E0CD0F57
:101FA000AD2ECD2E2401092C000C66087708D12C0B
:101FB000B12C40E060E080E00E94D61E2E2D402F24
:101FC0006F2D8C2D0E94BF1E0E94661F81149104EC
:101FD00021F0C301B2010E941E24CA14DB0424F4C0
:101FE0008FEFC81AD80A03C081E0C81AD108CA14F2
:101FF000DB04F9F68C2F90E0C816D90699F4C117C6
:1020000019F0AD2ECC2ED3CFDC1718F4AA24A3944C
:1020100002C0AA24AA94AD0EAC1679F0C12EC12F2D
:10202000DA2DC5CFC11303C0AC2ECD2EC0CFC11742
:1020300010F4CF5FF9CFC150F7CF40E060E080E00F
:102040000E94D61E2E2D402F6F2D812F0E94BF1E65
:102050000E94661FCDB7DEB7E0E10C941F33A8E104
:10206000B0E0E5E3F0E10C94013382E1E9E2F1E074
:10207000DE01119601900D928A95E1F7CE0143960B
:102080000E94160E1B8A81E08C8B1D8A82E08E8B4B
:102090001F8ACE0143960E94950C312CE12C2AE038
:1020A000C22ED12CF12C512C3FE0432E222423941C
:1020B00046E0642E712CEE2009F480C0EE24EA94F0
:1020C0000FEF2FEF41E050E0652D842D0E94C00FEF
:1020D000EE24E3948091500390915103009709F00E
:1020E00042C00E94CC06882309F488C00E948C0B51
:1020F0008091580390915903892B31F11092590323
:10210000109258034FEF6FEF8FEF0E94D61E0E9480
:10211000661F62E070E080E090E00E941E2440E0D4
:1021200060E080E00E94D61E2FEF4FEF6FEF852D0D
:102130000E94BF1E0E94661F81E08E0D8170E82EF6
:10214000109273032092490380914903882311F26E
:102150002FEF4FEF6FEF852D0E94BF1E0E94661F6D
:1021600010924903B7CF8632924044F482E3C816F6
:10217000D10454F49FEFC91AD90A06C01C141D04D7
:102180001CF421E0C21AD10810925103109250039E
:102190008F2D90E00196B3010E947D32F82E81E0F0
:1021A000830D982F9170392E80FD04C0512C9FE033
:1021B000492E81CF8FE0582E412C7DCF23E0F29E17
:1021C00040011124A12CB12CF501E80DF91D81E08D
:1021D00090E08C0F9D1FE80FF91F208130E00FEF7A
:1021E00010E0A601652D842D0E94740F9FEFA91A9F
:1021F000B90A23E0A216B10439F76CCF6896E2E180
:102200000C941D33FF920F931F93CF93DF9381E0C4
:102210008093490300E010E0C0E0D0E0FF24F39495
:102220000E94CC06811111C00E941F0680E00E940E
:10223000510640E060E080E00E94D61E0E94661FCA
:10224000CDB7DEB7E5E00C942A338091500390912E
:102250005103892B31F12196C370DD271092510370
:1022600010925003F0924903C80101968C0103704B
:10227000112780FF02C060E001C061E081E10E949F
:102280001A25C80195958795892B11F05D9801C095
:102290005D9A42E050E06EE170E08EE190E00E94D5
:1022A000A10680914903882309F4BACF109249030B
:1022B00040E060E080E00E94D61E0E94661F80E041
:1022C0000E941F0680E00E94510661E070E080E0FD
:1022D00090E00E941E24209729F4809101010E9421
:1022E0001F069ECFC130D10529F4809101010E94C3
:1022F000510696CFC230D10509F092CF4FEF6FEF64
:102300008FEF0E94D61E0E94661F8ACFEF92FF9227
:102310001F93CF93DF9340E060E080E00E94D61EE1
:102320002FEF40E060E08CE00E94BF1E0E94351F4E
:102330006AE070E080E090E00E941E2440E060E0EF
:1023400080E00E94D61E0E94351F62E370E080E0AC
:1023500090E00E941E2440E060E080E00E94D61ED3
:102360002FEF4091010160E089E00E94BF1E0E94B2
:10237000351F6AE070E080E090E00E941E2440E09B
:1023800060E080E00E94D61E0E94351F62E370E08C
:1023900080E090E00E941E2440E060E080E00E9427
:1023A000D61E20E04FEF60E086E00E94BF1E0E9434
:1023B000351F6AE070E080E090E00E941E2440E05B
:1023C00060E080E00E94D61E0E94351F62E370E04C
:1023D00080E090E00E941E2440E060E080E00E94E7
:1023E000D61E20E04FEF6FEF83E00E94BF1E0E94D9
:1023F000351F6AE070E080E090E00E941E2440E01B
:1024000060E080E00E94D61E0E94351F62E370E00B
:1024100080E090E00E941E2440E060E080E00E94A6
:10242000D61E20E040E06FEF80E00E94BF1E0E94B9
:10243000351F6AE070E080E090E00E941E2440E0DA
:1024400060E080E00E94D61E0E94351F62E370E0CB
:1024500080E090E00E941E2410E0C6EED0E00E94D2
:102460008B0B40E060E080E00E94D61E20E040E060
:102470006FEF812F8F700E94BF1E20E04FEF6FEF34
:1024800083E0810F8F700E94BF1E20E04FEF60E05D
:1024900086E0810F8F700E94BF1E2FEF4FEF60E02C
:1024A00089E0810F8F700E94BF1E2FEF40E060E037
:1024B0008CE0810F8F700E94BF1E0E94351FE12C9F
:1024C000F12CEC16FD0614F01F5FC9CFC130D10509
:1024D00031F061E070E080E090E00E941E240E94F4
:1024E000CC06882309F441C0809150039091510398
:1024F0000097B9F1873292407CF01092510310920C
:1025000050038091500390915103892B31F50E9423
:10251000CC068111F6CF29C062E370E080E090E044
:102520000E941E24CE01959587950196C80FD91F4C
:10253000CE018B5F9109893F910548F468EE73E005
:1025400080E090E00E941E24C8EED3E006C0C43FA5
:1025500081E0D80714F0C1E0D0E01092510310924E
:1025600050032FEFE21AF20AACCFDF91CF911F9107
:10257000FF90EF900895AAE0B0E0E1ECF2E10C9456
:102580000133CE0101960E94160E81E089831A82E2
:102590001B8282E08C831D82CE0101960E94950CE5
:1025A0002FEF298718861F82612C712C01E010E023
:1025B000812C912C54010E948C0BAFE1B0E0A5015D
:1025C00094010E94EE32C0908203D09083030D2CC0
:1025D000000CEE08FF08DC01CB018C0D9D1DAE1D2B
:1025E000BF1DB7FD07C0BC01CD01615F7F4F8F4F9D
:1025F0009F4F06C0BC01CD016F507109810991093F
:1026000020E230E040E050E00E94B33249015A013C
:10261000A7019601281939094A095B096114710457
:1026200009F050C0A8E2B0E00E94EE326B017C01DC
:1026300040E8C40E47E0D41EE11CF11CF7FC0DC0BD
:1026400061E0C6166FE0D606E104F1044CF0C12C3F
:102650006FE0D62EE12CF12C03C0C12CD12C7601D9
:1026600040E060E080E00E94D61E2D2C3E2C4F2CD6
:10267000552447FC5A9489858C9D900111246885C6
:10268000C69EA00111246F81C69EC0011124232F74
:10269000452F692F81E0820D0E94BF1EC09489855D
:1026A0008C9D9001112448854C9DC00111246F819F
:1026B0006C9D60011124232F492F6D2D822D0E94C6
:1026C000BF1E43C069017A0157FF08C0F094E0942F
:1026D000D094C094C11CD11CE11CF11CC301019712
:1026E00004C0F594E794D794C7948A95D2F785E00F
:1026F000C81AD108E108F10821E1C216D104E104A9
:10270000F1042CF040E1C42ED12CE12CF12C40E05E
:1027100060E080E00E94D61E4FE04A87212C312CD9
:1027200021012C143D044E045F047CF42985488566
:102730006F818A850E94BF1E6FEF261A360A460AED
:10274000560A8A8581508A87ECCF0E94661F0E94B4
:10275000CC068823C1F18091580390915903892BAD
:1027600059F0C301019666E070E00E947D323C01A1
:102770001092590310925803809150039091510385
:10278000892B09F418CF0F5F1F4F0830110514F083
:1027900001E010E0C80181709927282F21952F832F
:1027A000C80196958795817081958887C80196950F
:1027B00087959695879581708195898710925103A9
:1027C00010925003F8CE2A96E2E10C941D338F92BA
:1027D0009F92AF92BF92CF92DF92EF92FF920E94B0
:1027E000ED236B017C01909115019E3F68F480916F
:1027F0009603890F809315018F3F21F090919803E4
:102800008917B0F08EEF12C08091A9039091AA03AE
:10281000A091AB03B091AC038C509E4FAF4FBF4F14
:102820008C159D05AE05BF051CF48FEF8093150137
:102830008091170181118AC090919E0380911401AB
:10284000911144C080FF82C0409112015091130148
:10285000E091980320919F033091A0038091A303FE
:102860009091A403820F931F95958795092E000CD4
:10287000AA0BBB0B8090B1039090B203A090B3035E
:10288000B090B403880E991EAA1EBB1E2E2F30E0F6
:10289000DA010E94D832BB2797FDBA95A92F982F4D
:1028A000872FA5019401281B390B4A0B5B0B2C15B4
:1028B0003D054E055F050CF049C081E0809317018E
:1028C0008FEF8E0F809315018FEF3EC081FF3EC0CA
:1028D0004091120150911301209198036091A1033E
:1028E0007091A2038091A3039091A403860F971F78
:1028F00095958795092E000CAA0BBB0B8090AD0314
:102900009090AE03A090AF03B090B003880E991ED4
:10291000AA1EBB1E30E0DA010E94D832BB2797FD09
:10292000BA95A92F982F872FA5019401281B390B41
:102930004A0B5B0B2C153D054E055F053CF481E011
:102940008093170110921501809396038091740370
:10295000882309F45DC0C092A903D092AA03E09233
:10296000AB03F092AC0383FF50C090919E0382FFB3
:1029700026C0992309F449C0C092A503D092A603AA
:10298000E092A703F092A803C092B103D092B203E1
:10299000E092B303F092B4038091AD039091AE0343
:1029A000A601481B590B5093A2034093A103109218
:1029B0009E03109217011092160181E024C091111C
:1029C00024C0C092A503D092A603E092A703F09280
:1029D000A803C092AD03D092AE03E092AF03F09291
:1029E000B0038091B1039091B2039601281B390B7B
:1029F0003093A00320939F0381E080939E03109265
:102A0000170110921601809397031092740324C04B
:102A100080911601811120C08091A9039091AA0391
:102A2000A091AB03B091AC03AC01BD01485F5F4F17
:102A30006F4F7F4F4C155D056E057F056CF420913F
:102A4000A5033091A603821B930B9093A40380935C
:102A5000A30381E08093160180919D038F5F809393
:102A60009D038F37A8F08091990390919A03A60156
:102A7000481B590B5093130140931201C0929903C4
:102A8000D0929A03E0929B03F0929C0310929D03D4
:102A9000FF90EF90DF90CF90BF90AF909F908F907E
:102AA0000895ADE1B0E0E7E5F5E10C940133CE0126
:102AB00043960E94160E1B8A1C8A82E08D8B8E8B99
:102AC0008F8BCE0143960E94950C89E0EAE9F1E0F4
:102AD000DE011A9601900D928A95E1F789E0E3EA0A
:102AE000F1E09E012F5F3F4F3A8F298FD90101906E
:102AF0000D928A95E1F7809131038295807F8093D2
:102B00009803512CC12CD12C212C312CCE010A96AA
:102B10009C8F8B8F9FEF291A390A0E94CC0688233D
:102B200009F4B1C20E948C0B0E94E713C114D104B6
:102B300009F098C0C10164E670E00E946932892BF7
:102B400021F4F1E0F09372038DC080916B0340910A
:102B50006C0320916D0330916F03E09170035091ED
:102B60007103A22FB0E014E0B595A7951A95E1F78F
:102B70009A2F9770905D9A87B22FBF7090E39B0F4A
:102B80009B87642F70E094E0759567959A95E1F7BF
:102B9000962F977020E3290F2D874F7020E3240F85
:102BA0002E87682F70E024E0759567952A95E1F7E8
:102BB000262F277060E3620F688B8F7060E3680FC9
:102BC000698B652F70E0F4E075956795FA95E1F7EC
:102BD0006770605D6983152F1F7060E3610F6A8302
:102BE0006E2F70E0F4E075956795FA95E1F7762F12
:102BF0007170705D7C837E2F7F70E0E3E70FED8363
:102C0000E32FF0E0689413F8F595E7951694E1F753
:102C1000E370F0E3FE0FFF833F70F0E3F30FF887FC
:102C2000FAE02F9F800D11248D8F942E2AE0929F21
:102C3000900C1124A370BB2E8AE0A89FB00C112425
:102C4000432E9AE0E99F400C11246370A72EFAE00E
:102C50006F9FA00C112452955F70812E2AE0529F25
:102C6000800C1124409115014F3F09F45BC04E3F89
:102C700009F449C0469550E080913103282F30E097
:102C8000220F331F4217530734F410923703109268
:102C900038038FEF0CC093E0899F900111244217F5
:102CA000530744F48FEF8093370380933803809366
:102CB00039031BC0F5E08F9F900111244217530781
:102CC00034F4109237038FEF809338030CC026E062
:102CD000829FC00111244817590724F38FEF809376
:102CE0003703109238031092390331E0531619F06C
:102CF0006B8D7C8D02C0698D7A8D20E08BE293E034
:102D00000E94D20805C040E060E080E00E94D61E2C
:102D10000E94FD1E8091500390915103892B09F46C
:102D2000F9CE9AC140E060E080E00E94D61EC10169
:102D30006CE271E00E9469323C0181E058123AC0B5
:102D400096E96916710420F4F1E0CF16D10411F070
:102D5000E12C02C0E0E2EE2E0FEF25E04FE060E054
:102D6000842D0E94540F26E96216710420F432E08B
:102D7000C316D10411F0E12C02C070E2E72E0FEF70
:102D800024E04AE061E08A2D0E94540F86E968162B
:102D9000710420F493E0C916D10411F0E12C02C0B3
:102DA00060E2E62E0FEF27E046E062E0882D0E9409
:102DB000540F55C0F2E0CF16D104C9F026E96216CF
:102DC000710420F431E0C316D10411F0E12C02C0EB
:102DD00050E2E52E0FEF26E04FE060E08D8D0E947F
:102DE000540F81E0C816D10461F1E12C07C096E9C7
:102DF0006916710408F03EC140E2E42E0FEF26E0B0
:102E00004FE061E0892D0E94540FF6E96F167104BE
:102E100020F423E0C216D10411F0E12C02C030E20C
:102E2000E32E0FEF26E048E062E08B2D0E94540F66
:102E3000C114D10471F46D8D61706195262F462FF8
:102E40000BC0E12C0FEF26E048E062E08B2D0E94E2
:102E5000540F2FEF4FEF6FEF89E00E94BF1E0E94CB
:102E6000FD1E8091580390915903892B09F44FC09E
:102E7000511028C032E0C316D10449F4892D90E0E6
:102E8000CB966CE370E00E947D32982E3CC081E0CE
:102E9000C816D10451F4FD8D8F2F90E0CB966CE3D2
:102EA00070E00E947D328D8F2EC023E0C216D104C7
:102EB00051F58B2D90E0479668E170E00E947D32DD
:102EC000B82E21C032E0C316D10431F4AA94A11067
:102ED0001AC02CE0A22E17C081E0C816D10431F42C
:102EE0004A94411010C09FE1492E0DC093E0C916CD
:102EF000D10449F4882D90E08D599F4F64E670E02D
:102F00000E947D32882E10925903109258038091AE
:102F1000500390915103009709F4FCCD8732924001
:102F20000CF449C0C114D10471F1360121E0621AD8
:102F30007108E894C2F8CA94CD2809F092C08D8D2A
:102F4000E82EF12C092D10E02B2D30E0442D50E01F
:102F50006A2D70E0882D90E00E94B60D4FEF6FEF64
:102F60008FEF0E94D61E0E94661F68EC70E080E022
:102F700090E00E941E2440E060E080E00E94D61EA7
:102F80000E94661F6EC04FEF6FEF8FEF0E94D61E3C
:102F90000E94661F68EC70E080E090E00E941E24B2
:102FA00040E060E080E00E94D61E0E94661F83E041
:102FB000C82ED12C5AC0C114D10409F44DC05110EF
:102FC00028C092E0C916D10449F4892D90E00196F9
:102FD0006CE370E00E947D32982E47C0F1E0CF167E
:102FE000D10451F42D8D822F90E001966CE370E0B6
:102FF0000E947D328D8F39C033E0C316D104A9F50C
:103000008B2D90E0019668E170E00E947D32B82E31
:103010002CC082E0C816D10439F4A3949CE09A1520
:1030200010F5AA24A3941FC0F1E0CF16D10439F4FF
:1030300043942FE12415B8F44424439414C033E09E
:10304000C316D10481F4882D90E0019664E670E007
:103050000E947D32882E07C081E0850D8170582E38
:1030600004C0630102C0552453941092510310927E
:10307000500350CDE12C0FEF26E04FE061E0892DA9
:103080000E94540FCACE6D96E2E10C941D33AFE15D
:10309000B0E0EDE4F8E10C940133CE0146960E94D5
:1030A000160E1E8A1F8A01E0088F12E0198F1A8FF0
:1030B000CE0140960E94160E188B098B0A8B1B8B33
:1030C0001C8ACE0140960E94950CBE016F5F7F4F17
:1030D00081E00E9439078F81880F80939803512CDB
:1030E0001F8E11E000E0EBE76E2E712CF0E88F2EC2
:1030F000F7E09F2EA12CB12CC12CD12C76010E947F
:103100008C0B0E94E7130E94CC06882309F4FCC1B3
:103110008091500390915103892BD1F02DE3620EE1
:10312000711C1F5F17FD11E0BE016F5F7F4F812F84
:103130000E9439078F81880F80939803113019F00E
:1031400089858A3B71F710925103109250031F8EAC
:103150008091580390915903892B71F01092590373
:1031600010925803802F90E0019663E070E00E9477
:103170007D32082F10927303809115018F3F09F063
:1031800081C1552021F0CE0140960E94950C80917E
:103190007503882319F08DE4680E711C1092750375
:1031A000013009F49FC020F0023009F404C11FC1AE
:1031B00080917703823041F420EFC20E29E4D21EC1
:1031C00022E0E21EF11C1BC08E3F41F480EFC81AC2
:1031D00089E4D80A82E0E80AF10811C0813039F4A4
:1031E00028EAC20E21E6D21EE11CF11C08C08F3F66
:1031F00031F488EAC81A81E6D80AE108F108109289
:10320000770320917E0330917F03C901330FAA0B0E
:10321000BB0B9C01AD012C0D3D1D4E1D5F1DA8E596
:10322000B2E00E94EE321B012C0129E532E040E0C1
:1032300050E00E94B33269017A01C201B10120EA73
:103240003EEA44E250E00E94B332820E931EA41E76
:10325000B51EB7FE1DC0A2EEBFEFA70196010E94EA
:10326000FC3220E230E040E050E00E94B3326901DD
:103270007A01812C912C540124EFC21621E0D20650
:10328000E104F1040CF03CC1C12CD12C760138C111
:1032900081148FE09806A104B1040CF4A8C0AEE13B
:1032A000B0E0A70196010E94EE3220E230E040E05B
:1032B00050E00E94B332243F81E0380741055105B8
:1032C0001CF420E030E0A901CC24DD247601C21AF0
:1032D000D30AE40AF50A88248A947EE0972EA12C6A
:1032E000B12C0EC180917703823039F420E5C20EF3
:1032F00023ECD21EE11CF11C1AC08E3F39F480E58C
:10330000C81A83ECD80AE108F10811C0813039F4F9
:1033100028E9C20E2AE3D21EE11CF11C08C08F3F2F
:1033200031F488E9C81A8AE3D80AE108F108109252
:10333000770360E877E080E090E0681979098A090E
:103340009B0928E030E040E050E00E94B3328091D9
:103350007E0390917F0397FD079663E0959587958F
:103360006A95E1F7092E000CAA0BBB0B820F931F85
:10337000A41FB51F9C01AD012C0D3D1D4E1D5F1DF1
:10338000A8E5B2E00E94EE321B012C0129E532E0F3
:1033900040E050E00E94B33269017A01C201B101FC
:1033A00020E13BEA43E050E00E94B332820E931EDC
:1033B000A41EB51E1CC080917E0390917F032FE058
:1033C000289F4001299F900C112497FE03C02FEFE6
:1033D000821A920A9594879480E8881A88EF980A4E
:1033E000092C000CAA08BB08C12CD12C76018091B5
:1033F0008003909181036AE070E00E947D32862F05
:103400009E01245E3F4FAE01435E5F4FBE01625E90
:103410007F4F860D0E94AB0240E060E080E00E949A
:10342000D61E2C8D4D8D8E8D292C3A2C4B2C55244F
:1034300047FC5A94289D90011124849EA0011124D8
:10344000889EC0011124232F452F692F81E0820D12
:103450000E94BF1E2C8D4D8D9E8D882D8095289F9E
:1034600090011124849FA0011124899FC00111247F
:10347000232F452F692F822D0E94BF1E0E94661F99
:10348000512C3DCE511004C0CE0146960E94950CA1
:1034900080919703882379F02F8D822F90E00196F9
:1034A0006E8170E06F5F7F4F660F771F0E947D32E5
:1034B0008F8F10929703809115018E3F80F440E02A
:1034C00060E080E00E94D61E40911501469520E004
:1034D0006F8D6695CE0101960E94B7080CC020E062
:1034E0004FE760E0CE0101960E94B70840E060E03F
:1034F00080E00E94D61E0E94FD1E55245394FFCDED
:103500008DE3680E711C73CF6F96E2E10C941D334E
:10351000ABE2B0E0EEE8FAE10C9401338FEA94E01C
:103520000E943528892B09F4A3C140E060E084E1C2
:103530000E94D61E0E94661F61E070E080E090E06D
:103540000E941E24CE0101961C017C0110E08FEA2E
:1035500094E00E943528892B49F01F3139F08FEA19
:1035600094E00E9459288A3009F07AC1F101E10FF4
:10357000F11D10826CEA71E0C1010E943833892B81
:1035800031F467EB71E08FEA94E00E94962963EED4
:1035900071E0C1010E943833892B19F40E94A00305
:1035A00055C16FEE71E0C1010E943833892B09F0DB
:1035B0004AC081E090919503911180E0809395033A
:1035C00040E060E00E9483066CEA72E08FEA94E0DB
:1035D0000E9477294AE050E061E070E08FEA94E0D1
:1035E0000E94412A6CEA72E08FEA94E00E947729F7
:1035F0006CEA72E08FEA94E00E9477294AE050E09A
:1036000063E070E08FEA94E00E94412A6CEA72E085
:103610008FEA94E00E9477294AE050E066E070E08B
:103620008FEA94E00E94412A6AEF71E08FEA94E009
:103630000E9477294AE050E0609195038FEA94E078
:103640000E94F82903C16CE072E0C1010E94383386
:10365000892B09F0EAC00E94AF0A89A30E94BA0A26
:103660004C01A12CB12CB501A4013CE076956795E5
:10367000579547953A95D1F7042F9F70892B11F0F4
:1036800001E0040FB9A1BB2339F0802F90E08B0F2C
:10369000911D8F3F91051CF069E172E0D3C0E9A153
:1036A000CE2ED12CE12CF12CD701C6012CE0880FB5
:1036B000991FAA1FBB1F2A95D1F78AA39BA3ACA36E
:1036C000BDA32C013D0110E0011751F0C301B2016F
:1036D0000E94BD221F5F90E1590E611C711CF4CF46
:1036E0000E94ED2368A779A78AA79BA7C12CD12C9C
:1036F0007601C814D904EA04FB04A0F53FA22EA267
:103700002601370110E00E94AF0AAEA1BFA18D9340
:10371000BFA3AEA31F5FBFEF4B1A5B0A6B0A7B0A06
:10372000103229F0481459046A047B0460F310FF36
:1037300006C0F101E10FF11D2FEF20831F5F212F44
:1037400030E06AA17BA18CA19DA16C0D7D1D8E1D19
:103750009F1DA1010E94112380E2C80ED11CE11C13
:10376000F11CC7CF0E94ED232B013C0120E230E089
:10377000A1016AA17BA18CA19DA10E94E322B301BA
:10378000A20188A599A5AAA5BBA5481B590B6A0B40
:103790007B0B2AE030E08FEA94E00E940A2A6FE374
:1037A00072E08FEA94E00E9477294AE050E069A134
:1037B0008FEA94E00E94F02960E572E08FEA94E0DD
:1037C0000E9477294AE050E0602F8FEA94E00E943F
:1037D000F02969E572E08FEA94E00E9477292AE0F7
:1037E00030E0B501A4018FEA94E00E94E1296CEA7F
:1037F00072E08FEA94E00E9477298E010F5D1F4FDF
:10380000D1016D911D0140E150E08FEA94E00E94EA
:10381000F02961E672E08FEA94E00E947729201691
:10382000310671F763E672E00DC067E672E08FEA79
:1038300094E00E947729B1018FEA94E00E947729F1
:1038400064E772E08FEA94E00E9496290E94950452
:1038500040E060E080E00E94D61E0E94661F08C023
:103860008D3009F483CE1F5FD7018D937D016FCE1C
:10387000AB96E2E10C941D33892B31F061E087E0D7
:103880000E94DE2461E005C060E087E00E94DE2443
:1038900060E087E00E941A250895CF93C82F809199
:1038A0001C0190911D019093B6038093B50385E0B0
:1038B0000E94B12690931D0180931C01CC23D1F06E
:1038C000BC01990F880B990B0E949B3020E030E0DF
:1038D00040E85AE30E947F312DE134ED47EA50E49D
:1038E0000E947F31609318017093190180931A012F
:1038F00090931B01CF91089561E087E10E94DE243F
:1039000060E087E10E941A25FFCFA0E0B0E0EBE87D
:10391000FCE10C940533EC010E94950462E370E035
:1039200080E090E00E941E2480E00E944D1C812CCB
:10393000912C540180915A0390915B03A0915C03F8
:10394000B0915D03892B8A2B8B2B09F19AE0E92E2C
:10395000F12C09E010E026E030E040E850E060E8BB
:1039600070E080E090E00E9479030E94DE0324E191
:10397000E22EF12C0FE010E020E030E040E050E0DB
:1039800060E070E080E090E00E947903D3CF03E034
:1039900010E06EE170E080E090E00E941E240E9442
:1039A000DE0381E00E944D1C80915A0390915B03DD
:1039B000A0915C03B0915D03892B8A2B8B2B91F432
:1039C000209118013091190140911A0150911B0169
:1039D000C501B4010E940E2F4B015C010150110979
:1039E000C1F603C0812C912C540120E030E040E46A
:1039F00050E4C501B4010E94F12F4B015C0120E0AD
:103A000030E0A9010E94EC2F882309F493CF40E015
:103A100060E080E00E94D61E8FE0782E00E010E08B
:103A2000B801012E000C880B990B0E949B3020E0FE
:103A300030E040E85DE30E947F3128E636E646E666
:103A40005FE30E947F312AE939E949E550E40E94A9
:103A50000E2F6B017C019B01AC01C501B4010E94DA
:103A6000723118160CF048C02AE939E949E650E4E9
:103A7000C701B6010E9472311816C4F42AE939E967
:103A800049E650E4C701B6010E940D2F20E030E066
:103A90004FE753E40E947F3128E636E646E25FE3D3
:103AA0000E94F12F0E946330662E01C0612C2AE92A
:103AB00039E949E750E4C701B6010E94EC2F87FFBE
:103AC00015C0A70196016AE979E989E790E40E94A7
:103AD0000D2F20E030E04FE753E40E947F319B013F
:103AE000AC010E940E2F0E94633001C060E020E014
:103AF000462D872D0E94BF1E1C161D0644F40E94F1
:103B0000351F6CE070E080E090E00E941E240F5FA3
:103B10001F4F7A948FEF781283CF0E94351F64E68F
:103B200070E080E090E00E941E248091D90080FF28
:103B30000EC086E10E944925892B19F020E04FEF45
:103B400002C02FEF40E060E08FE00E94BF1E0E94A5
:103B5000351FD7FF19C0D195C195D10900E010E0FC
:103B60000E94DE0380915A0390915B03A0915C0355
:103B7000B0915D03892B8A2B8B2BC9F58AE00E94BB
:103B80004925892BA1F127C064E670E080E090E030
:103B90000E941E2400E010E00C171D07D4F50E94BF
:103BA000DE0380915A0390915B03A0915C03B09176
:103BB0005D03892B8A2B8B2B61F58AE00E944925B6
:103BC000892B39F164E170E080E090E00E941E24CE
:103BD0000C5E1F4FE1CF64E170E080E090E00E9456
:103BE0001E240C5E1F4F0C171D070CF4B9CFC0E04C
:103BF00020E040E060E08C2F0E94BF1E0E94351F35
:103C00006CE070E080E090E00E941E24CF5FC03145
:103C100079F740E060E080E00E94D61E0E94351FE8
:103C2000C0E0D0E00E94DE0380915A0390915B03D4
:103C3000A0915C03B0915D03892B8A2B8B2B29F417
:103C40008AE00E944925892B91F4C536D1053CF0C4
:103C500040E860E880E80E94D61E0E94351F219649
:103C60006AE070E080E090E00E941E24DBCF0E94BA
:103C70009504CDB7DEB7EEE00C94213360E086E02A
:103C80000E941A2560E081E00E941A250E942907FF
:103C900020910A0330910B038217930719F0C90191
:103CA0000E9431070E94DE03812C912C54018091E7
:103CB0005A0390915B03A0915C03B0915D03892B43
:103CC0008A2B8B2B79F1C501B4010E94EC3120E0E5
:103CD00030E040E252E40E947F3126E636E646EAD2
:103CE0005FE30E940E2F0E946330CB0177FF02C07A
:103CF00080E090E02AE0E22EF12C0CE010E024E0DD
:103D000030E0AC01BC010E9479032AE037ED43E2C8
:103D10005DE3C501B4010E940E2F4B015C010E94BE
:103D2000DE03C5CF8CE09EEF0E94851C0E947C1CA8
:103D300061E0811160E084E00E941A2508958031DD
:103D400058F4633048F493E0899FF0011124E9545A
:103D5000FC4FE60FF11D408308951F93CF93DF932F
:103D6000D82F162FC0E0412F6D2F8C2F0E949F1E41
:103D7000CF5FC031C1F7DF91CF911F91089580319E
:103D8000A0F4E82FEE0F8E0FE82FF0E0E954FC4F7F
:103D90006083E1E0E80FF0E0E954FC4F40838E5F80
:103DA000E82FF0E0E954FC4F208308950F931F9310
:103DB000CF93DF93D82F162F042FC0E0202F412F51
:103DC0006D2F8C2F0E94BF1ECF5FC031B9F7DF91DE
:103DD000CF911F910F91089561E084E00E941A2510
:103DE00061E08CE00E941A2560E08CE00E941A25B8
:103DF00060E084E00E941A2508956091010187E146
:103E0000EFEFE80FA82FB0E0A954BC4F4C91469FAC
:103E1000A0011124E63119F00DB407FEFDCF5EBDFF
:103E20008250F0E0E954FC4F2081629F9001112400
:103E3000407F932F92959F70492B0DB407FEFDCFC5
:103E40004EBD94E0369527959A95E1F78F3F09F49A
:103E50008FE20DB407FEFDCF2EBD873189F60DB47C
:103E600007FEFDCF0E94EC1E08950E94FD1E0895DE
:103E700061E08FE00E94DE2461E080E10E94DE24A8
:103E800061E084E00E941A2561E084E00E94DE2463
:103E900061E084E00E941A2561E08CE00E94DE244B
:103EA0000E946F2381E00E94862380E00E948F237E
:103EB00084E00E94942340E060E080E00E94D61EEF
:103EC0000E94FD1E81E00E94981E08950E94FD1E22
:103ED0000895CF93DF93D82FC62F0E9444220E94CB
:103EE0004C2282E50E9455220E944C228D2F806830
:103EF0000E9455220E944C228C2F0E9455220E9423
:103F00004C220E944822ECEBF0E080818B7F808382
:103F1000808184608083DF91CF910895CF93C82FF3
:103F20000E9444220E944C2282E50E9455220E9457
:103F30004C228C2F80680E9455220E944C220E94A5
:103F400048220E9444220E944C2283E50E9455226E
:103F50000E944C2280E00E945B220E944C220E9420
:103F60006922C82F0E94482261E070E080E090E062
:103F70000E941E24ECEBF0E080818B7F80838081A7
:103F8000846080838C2FCF910895682F609581E0A5
:103F90000E94691F6FEF82E00E94691F60EE8FE050
:103FA0000E94691F63E08EE00E94691F67E180E064
:103FB0000E94691F80E00E944925892BD9F784E17E
:103FC0000E948E1F90E09093FA038093F90385E19D
:103FD0000E948E1F90E0982F88272091F90330913E
:103FE000FA03820F931F9093FA038093F90386E1FB
:103FF0000E948E1F90E09093F8038093F70387E16F
:104000000E948E1F90E0982F88272091F70330910F
:10401000F803820F931F9093F8038093F70388E1CE
:104020000E948E1F90E09093F6038093F50389E140
:104030000E948E1F90E0982F88272091F5033091E1
:10404000F603820F931F9093F6038093F5038AE1A2
:104050000E948E1F90E09093F4038093F3038BE112
:104060000E948E1F90E0982F88272091F3033091B3
:10407000F403820F931F9093F4038093F3038CE176
:104080000E948E1F90E09093F2038093F1038DE1E4
:104090000E948E1F90E0982F88272091F103309185
:1040A000F203820F931F9093F2038093F103209108
:1040B000F9033091FA033093E8032093E70320914A
:1040C000F7033091F8033093EA032093E90320913A
:1040D000F5033091F6033093EC032093EB0320912A
:1040E000F3033091F4033093EE032093ED039093A8
:1040F000F0038093EF0360E080E00E94691F089561
:10410000CF93DF93D82FC62F40E060E080E00E947D
:10411000D61E0E94351F0E94E10ACC2319F08FEFB2
:104120000E941F068D2F90E00E94C51FCC2319F01E
:1041300080E00E941F06DF91CF910895A0E0B0E0DB
:10414000E4EAF0E20C940933EC018B015A0140E0FF
:1041500060E080E00E94D61E0E94351F0E94E10AA6
:104160008FEF0E941F068AE090E00E94C51F80E04A
:104170000E941F06A091F703B091F8032091F50368
:104180003091F603CD01A217B3070CF4C901C0901A
:10419000F303D090F403C816D9060CF46C010D2C6F
:1041A000000CEE08FF082FEF30E00E94E732A70175
:1041B00096010E94B3322883A091F503B091F603D3
:1041C0002FEF30E00E94E732A70196010E94B33240
:1041D000F8012083A091F303B091F4032FEF30E0B6
:1041E0000E94E732A70196010E94B332F5012083B5
:1041F000A501B801CE010E94D002CDB7DEB7EAE03A
:104200000C942533A6E2B0E0E8E0F1E20C9403332D
:104210008FEF8AA389A388A385E1EBE3F1E0DE01B8
:10422000119601900D928A95E1F788E0E0E5F1E0C2
:10423000DE01569601900D928A95E1F71F8E1E8E33
:10424000CC24C394D12C812C412C512C320124EF4D
:10425000A22EBB24B394992493940E94CC06882365
:1042600009F4DDC084E090E00E94C51F0091F103D5
:104270001091F203A016B1060CF45801A3019201AB
:10428000C301B2010E940E2F2B013C01B801110F96
:10429000880B990B0E949B309B01AC01C301B201BA
:1042A0000E940E2F20E030E040E450E40E94F12F05
:1042B0002B013C0181102AC020E030E040E851E4AD
:1042C0000E947F316BA37CA38DA39EA3B5010B2C11
:1042D000000C880B990B0E949B309B01AC016BA1D9
:1042E0007CA18DA19EA10E94F12F9B01AC0160E0F9
:1042F00070E080E891E40E940D2F0E9463309B01E2
:10430000603171052CF02FE030E002C020E030E099
:1043100048A150E0E9A1F0E08AA1EE24E394F12C59
:1043200000E110E0BF0190E00E947903882049F08D
:1043300020E030E040E050E060E0CE0146960E9490
:10434000180980915003909151030097B9F1873279
:1043500092406CF0C9244FEF6FEF8FEF0E94D61E92
:104360006AE070E080E090E00E941E2423C0CC2030
:1043700059F0AE01405E5F4FBE016F5D7F4FCE01D1
:1043800082960E949E200DC060E084E60E948020FC
:104390008091F7038AA38091F50389A38091F303A9
:1043A00088A3BE016A5E7F4F8091F9039091FA0362
:1043B0000E94E50810925103109250038091580317
:1043C00090915903892B09F448CF87E0D81601F161
:1043D00023E0D29EC0011124E1E0F0E0EC0FFD1FCC
:1043E000E80FF91F20812AA3E2E0F0E0EC0FFD1FA7
:1043F000E80FF91F208129A3E3E0F0E0EC0FFD1F97
:10440000E80FF91F808188A3D3948824839402C085
:10441000D12C812C10925903109258031ECF80E0AA
:104420000E941F0660E080E00E94691FA696E0E1FE
:104430000C941F332091B9002E7F2093B900209156
:10444000B9002D7F2093B9009C0140E050E060ED61
:1044500077E080E090E00E94B332822F203130F08C
:1044600030E02051310935952795822F8093B8008F
:104470000895519A80E991E00E941A22ECEBF0E055
:10448000808184608083089585EA8093BC000895CC
:1044900085E98093BC0008958BE590E02091BC00F5
:1044A00027FD02C00197D1F708958093BB0085E8EE
:1044B0008093BC000895882329F08091BC008F7000
:1044C000806C04C08091BC008F7080688093BC00B9
:1044D00008958091BB0008958EBD0DB407FEFDCFF9
:1044E0008EB50895CF93C82F60E08BE00E941A2507
:1044F0008C2F0E946C2261E08BE00E941A25CF91E4
:104500000895CF93DF93D82FC62F60E08BE00E94F1
:104510001A258D2F0E946C228C2F0E946C22C82F8E
:1045200061E08BE00E941A258C2FDF91CF910895D6
:1045300060E085E00E94812208950E94982280FF19
:1045400005C081E090E00E944424F7CF089586E002
:104550000E9472220E949D2280E50E9472220E9487
:104560009D2260E081E00E9481220E949D2286E0DF
:104570000E9472220E949D2208951F93CF93DF9381
:10458000EB01182F0E94A72260E08BE00E941A2501
:1045900080E20E946C22812F0E946C228D2F0E944B
:1045A0006C228C2F0E946C2261E08BE00E941A2505
:1045B0000E949D2284E00E9472220E949D22DF912F
:1045C000CF911F910895A0E0B0E0E9EEF2E20C94E3
:1045D0000C33EB01D82E7A01890160E08BE00E9458
:1045E0001A2583E00E946C228D2D0E946C228D2F53
:1045F0000E946C228C2F0E946C22E7010E0D1F1D61
:10460000C017D10729F080E00E946C228993F8CF6F
:1046100061E08BE00E941A25CDB7DEB7E7E00C948D
:104620002833A0E0B0E0E7E1F3E20C940C3321156D
:10463000310509F446C07901EA01D82E072F162F5B
:1046400086E00E94722260E08BE00E941A258DEACB
:104650000E946C228D2D0E946C22802F0E946C2261
:10466000812F0E946C2288810E946C2289810E9485
:104670006C2261E08BE00E941A250E949D228E012F
:104680000E5F1F4FC8018C1B9D0B8E159F05B0F44C
:1046900060E08BE00E941A258DEA0E946C22F801EE
:1046A00080810E946C22F80181810E946C2261E06D
:1046B0008BE00E941A250E949D22E2CF84E00E9496
:1046C0007222CDB7DEB7E7E00C942833CB010E940D
:1046D00041330895CB01642F0E944933089561E06E
:1046E00081E10E941A2561E081E10E94DE248CB5FF
:1046F00080618CBD8CB580648CBD61E08FE00E94D0
:10470000DE2461E080E10E94DE240895811103C06F
:104710008CB5806202C08CB58F7D8CBD08959CB530
:10472000937F892B8CBD08959CB59C7F282F237087
:10473000922B9CBD2DB582FB992790F9822F8E7FFD
:10474000892B8DBD08951F920F920FB60F921124E1
:104750002F933F938F939F93AF93BF938091FD03CC
:104760009091FE03A091FF03B09100043091FC03EF
:1047700026E0230F2D3720F40296A11DB11D05C0A0
:1047800029E8230F0396A11DB11D2093FC038093FC
:10479000FD039093FE03A093FF03B0930004809168
:1047A000010490910204A0910304B09104040196C5
:1047B000A11DB11D8093010490930204A0930304F2
:1047C000B0930404BF91AF919F918F913F912F912E
:1047D0000F900FBE0F901F9018952FB7F89460910F
:1047E000FD037091FE038091FF03909100042FBFA1
:1047F00008953FB7F8948091010490910204A0912C
:104800000304B091040426B5A89B05C02F3F19F0FE
:104810000196A11DB11D3FBFBA2FA92F982F882740
:10482000820F911DA11DB11DBC01CD0143E0660F9A
:10483000771F881F991F4A95D1F70895CF92DF926D
:10484000EF92FF92CF93DF936B017C010E94F923DB
:10485000EB01C114D104E104F10479F00E94F923C1
:104860006C1B7D0B683E7340A0F381E0C81AD10831
:10487000E108F108C851DC4FECCFDF91CF91FF90F8
:10488000EF90DF90CF9008958130910539F0029735
:1048900029F0880F991F01970197F1F708957894EF
:1048A00084B5826084BD84B5816084BD85B5826035
:1048B00085BD85B5816085BDEEE6F0E080818160D3
:1048C0008083E1E8F0E010828081826080838081D3
:1048D00081608083E0E8F0E0808181608083E1E9AD
:1048E000F0E0808182608083808181608083E0E964
:1048F000F0E0808181608083E1ECF0E08081846081
:104900008083808182608083808181608083E3EC0A
:10491000F0E0808181608083E0ECF0E08081826063
:104920008083E2ECF0E0808181608083EAE7F0E060
:1049300080818460808380818260808380818160C7
:104940008083808180688083089590E0FC013197A6
:10495000EE30F10590F5ED59FF4F0C94D232809175
:1049600080008F7703C0809180008F7D80938000CE
:10497000089584B58F7702C084B58F7D84BD089576
:10498000809190008F7707C0809190008F7D03C049
:1049900080919000877F8093900008958091C0005F
:1049A0008F7703C08091C0008F7D8093C0000895F1
:1049B0008091C200877F8093C2000895CF93DF93D8
:1049C00090E0FC01E85AFE4F2491FC01EA58FE4FAA
:1049D0008491882361F190E0880F991FFC01E055D4
:1049E000FE4FC591D491FC01EE55FE4FA591B491B7
:1049F000611109C09FB7F89488812095822388832C
:104A0000EC912E230BC0623061F49FB7F89488813B
:104A1000322F309583238883EC912E2B2C939FBFCC
:104A200006C08FB7F894E8812E2B28838FBFDF91C3
:104A3000CF9108951F93CF93DF93282F30E0F90192
:104A4000E65CFE4F8491F901E85AFE4FD491F901DA
:104A5000EA58FE4FC491CC23C1F0162F81110E9459
:104A6000A524EC2FF0E0EE0FFF1FEE55FE4FA591B1
:104A7000B4919FB7F894111104C08C91D095D823AC
:104A800002C0EC91DE2BDC939FBFDF91CF911F9191
:104A90000895CF93DF93282F30E0F901E65CFE4FB5
:104AA0008491F901E85AFE4FD491F901EA58FE4F7A
:104AB000C491CC2391F081110E94A524EC2FF0E049
:104AC000EE0FFF1FEC56FE4FA591B491EC91ED2334
:104AD00081E090E021F480E002C080E090E0DF918E
:104AE000CF910895A6E0B0E0E8E7F5E20C94023338
:104AF0008DE00E94390C982E66E772E08FEA94E010
:104B00000E947729692D70E040E150E08FEA94E03F
:104B10000E94492A80E8809301011A821B8281E069
:104B2000898392E09C838D838E83CE0101960E94BF
:104B3000950C812C912C3FE0332E0E948C0B89E048
:104B40000E944925892BE1F08EE50E94390C81FFF6
:104B500017C060EC72E08FEA94E00E9496298FEF14
:104B6000881A980A8BE08816910464F06FE772E067
:104B70008FEA94E00E94962964E28CE50E94670C1B
:104B8000812C912C0E94CC06882309F4E6C0609108
:104B9000780370917903072E000C880B990B0E9403
:104BA0009B302B013C0160917A0370917B03072EAF
:104BB000000C880B990B0E949B30A30192010E946C
:104BC0008D2F20E030E044E353E40E947F312BED51
:104BD0003FE049E450E40E94F12F0E9463302B0132
:104BE0003C0140E060E080E00E94D61EB20157FE2A
:104BF00004C06627772764197509072E000C880BF7
:104C0000990B1F921F921F923F92A12CB12C65010C
:104C100014EBE12EF12C00E010E020E030E0A901DF
:104C20000E94CC2E162F072F24E640E060E0812F53
:104C30000E94BF1E61EA72E08FEA94E00E94772929
:104C40004AE050E0612F702F8FEA94E00E94492AD9
:104C50000E94FD1E0F900F900F900F9080915803AF
:104C600090915903892B09F468CF6AE070E080E0E5
:104C700090E00E941E24109259031092580367EA94
:104C800072E08FEA94E00E94772960917E03709130
:104C90007F034AE050E08FEA94E00E94412A65EAEF
:104CA00072E08FEA94E00E9477296091800370910E
:104CB00081034AE050E08FEA94E00E94412A65EACD
:104CC00072E08FEA94E00E947729609182037091EC
:104CD00083034AE050E08FEA94E00E94492A6EEA9A
:104CE00072E08FEA94E00E947729609178037091D6
:104CF00079034AE050E08FEA94E00E94412A65EA95
:104D000072E08FEA94E00E94772960917A037091B3
:104D10007B034AE050E08FEA94E00E94412A65EA72
:104D200072E08FEA94E00E94772960917C03709191
:104D30007D034AE050E08FEA94E00E94492A66EB46
:104D400072E08FEA94E00E9477294AE050E0B201D5
:104D50008FEA94E00E94492AF0CE2696E1E10C9475
:104D60001E33823108F08251E82FF0E0E25DFE4F01
:104D7000E49180917B00E3FB222720F930E095E06D
:104D8000220F331F9A95E1F78F7D282B20937B000C
:104D900080911E0120E4829FC0011124E770E82B5E
:104DA000E0937C0080917A00806480937A00809107
:104DB0007A0086FDFCCF809178002091790090E008
:104DC000922B0895FC0124853585F901E05CFF4FA5
:104DD00080819181329620813181821B930B8F7368
:104DE00099270895DC011C96ED91FC911D97DF0138
:104DF000A05CBF4F2D913C91119712968D919C9183
:104E000011972817390739F08D919C91E80FF91FF8
:104E1000808190E008958FEF9FEF0895FC01A485B5
:104E2000B585FD01E05CFF4F2081318132968081A4
:104E300091812817390779F080819181A80FB91FD6
:104E40008C91208131812F5F3F4F2F733327318326
:104E5000208390E008958FEF9FEF0895FC0181A1DA
:104E6000882329F0A489B5898C9186FFFBCF11A2F4
:104E700008950F931F93CF93DF93FC01A685B78509
:104E80008D01005C1F4FE8018881998101968F7325
:104E90009927AD014E5B5F4FEA01288139812817C0
:104EA0003907D1F3E80128813981A20FB31F6C9330
:104EB000A685B785A05CBF4F11969C938E93A6895B
:104EC000B7892C9181E090E0078C02C0880F991F70
:104ED0000A94E2F7822B8C9381E081A30488F58900
:104EE000E02D80818064808381E090E0DF91CF912C
:104EF0001F910F91089508951F920F920FB60F9270
:104F000011242F934F935F938F939F93EF93FF936E
:104F10008091C80082FD1CC02091CE008091AB041E
:104F20009091AC044091AD045091AE0401968F7302
:104F300099274817590771F0E091AB04F091AC0440
:104F4000E559FB4F20839093AC048093AB0402C0DF
:104F50008091CE00FF91EF919F918F915F914F9142
:104F60002F910F900FBE0F901F90189585E094E041
:104F70000E94E226892B11F00E947B2708951F9240
:104F80000F920FB60F9211242F933F938F939F93FD
:104F9000EF93FF9320916704309168048091690436
:104FA00090916A042817390731F48091C9008F7DE8
:104FB0008093C90014C0E0916904F0916A04E95D2E
:104FC000FB4F20818091690490916A0401968F7350
:104FD000992790936A04809369042093CE00FF91EF
:104FE000EF919F918F913F912F910F900FBE0F9056
:104FF0001F901895E5E0F4E01382128288EE93E0AA
:10500000A0E0B0E084839583A683B7838EED92E021
:10501000918380838BE694E09587848787E294E090
:10502000978786878DEC90E0918B808B8CEC90E05D
:10503000938B828B88EC90E0958B848B89EC90E04D
:10504000978B868B8AEC90E0918F808F8EEC90E02E
:10505000938F828F84E0848F83E0858F87E0868FB3
:1050600085E0878F81E080A308958091FD04909171
:10507000FE042091FF0430910005821B930B8F7377
:10508000992708952091FD043091FE048091FF043A
:10509000909100052817390749F0E091FF04F0913D
:1050A0000005E354FB4F808190E008958FEF9FEF60
:1050B00008952091FD043091FE048091FF049091A9
:1050C000000528173907A9F0E091FF04F0910005C9
:1050D000E354FB4F80812091FF04309100052F5F46
:1050E0003F4F2F733327309300052093FF0490E048
:1050F00008958FEF9FEF0895CF93DF93C091FD0444
:10510000D091FE042196CF73DD278091FF0490910A
:105110000005C817D90799F082E00E94BF2A8F3F87
:105120002FEF920761F0E091FD04F091FE04E3544B
:10513000FB4F8083D093FE04C093FD04DFCFDF914B
:10514000CF91089583E00E94002D0895A1E0B0E082
:10515000ECEAF8E20C940F338C016983809126010C
:10516000882359F041E050E0BE016F5F7F4F83E03C
:105170000E94F22A181619063CF081E090E0F8012E
:105180009383828380E090E02196E4E00C942B33BB
:10519000FC0190819E5F908342E450E06EEB71E0F1
:1051A00080E80E946E2B0895FC0181819081913AE4
:1051B00059F4813209F04DC047E050E06FE171E0F1
:1051C00080E00E946E2B47C0913209F042C08032CD
:1051D00039F467E070E08FE191E00E94B52B3BC0AD
:1051E000823209F036C082818093260180911F01AE
:1051F00090912001A0912101B0912201803B944027
:10520000A105B10541F58091260180FD11C087E718
:1052100097E790930108809300089BE088E10FB620
:10522000F894A895809360000FBE9093600013C01F
:105230000FB6F894A8958091600088618093600013
:10524000109260000FBEA8951092010810920008FD
:1052500002C080E0089581E008950895EFEAF4E047
:105260001382128288EE93E0A0E0B0E084839583FD
:10527000A683B7838EEE92E0918380830895A0E0A9
:10528000B0E0E5E4F9E20C940B336C01EB017B0137
:10529000E40EF51E00E010E0CE15DF0561F0699127
:1052A000D601ED91FC910190F081E02DC6010995A8
:1052B000080F191FF1CFC801CDB7DEB7E8E00C9495
:1052C00027336115710581F0FB0101900020E9F79A
:1052D0003197AF01461B570BDC01ED91FC91028029
:1052E000F381E02D0995089580E090E008950E94F3
:1052F00061290895DC01ED91FC910190F081E02D90
:10530000099508950F931F93CF93DF93EC016DE000
:105310000E947A298C016AE0CE010E947A29800FCE
:10532000911FDF91CF911F910F9108950F931F93BC
:10533000CF93DF93EC010E9461298C01CE010E9482
:105340008229800F911FDF91CF911F910F910895B6
:10535000A1E2B0E0EEEAF9E20C9407336C01142FFD
:10536000E52FCB01022F19A2223008F40AE07E01BA
:1053700021E2E20EF11C802E912CA12CB12C612F88
:105380007E2FA50194010E949132029F10191124D1
:1053900081E0E81AF1081A3010F4105D01C0195CC0
:1053A000F7011083122FE32FCA01232B242B252B67
:1053B00031F7B701C6010E946129A196ECE00C9477
:1053C00023332115310549F4DC01ED91FC91019065
:1053D000F081E02D642F099508950E94A829089571
:1053E0009A01462F50E060E070E00E94E1290895A4
:1053F0000F931F93CF93DF93EC010E94F0298C0150
:10540000CE010E948229800F911FDF91CF911F91C1
:105410000F910895A0E0B0E0E0E1FAE20C940B33C4
:105420008C016A017B012115310549F4DC01ED9104
:10543000FC910190F081E02D642F09951DC02A3068
:105440003105A9F477FF12C06DE20E947A29EC01C0
:1054500044275527BA014C195D096E097F092AE0D6
:10546000C8010E94A8298C0F9D1F06C02AE0B70121
:10547000A601C8010E94A829CDB7DEB7E8E00C94C8
:1054800027339A01AB01770F660B770B0E940A2A2C
:1054900008950F931F93CF93DF93EC010E94412A4D
:1054A0008C01CE010E948229800F911FDF91CF9144
:1054B0001F910F910895615030F02091F100FC018F
:1054C00020830196F8CF289884E6809308050895F4
:1054D0002FB7FC012083F89467706093E90008956A
:1054E000A1E0B0E0E6E7FAE20C941133682FCE01B8
:1054F00001960E94682A8091F20099819FBF2196AF
:10550000E2E00C942D33A1E0B0E0E9E8FAE20C947B
:105510000D3390910705992311F057FF03C08FEFCA
:105520009FEF29C08A017B01682FCE0101960E945E
:10553000682A2091F20030E0021713070CF498015A
:10554000822FF70194E6815038F02898909308054F
:105550004091F1004193F7CF2115310521F0809161
:10556000F200882321F089818FBFC90104C08BE636
:105570008093E800F8CF2196E6E00C942933A1E06F
:10558000B0E0E5ECFAE20C94113341E050E0BE01EA
:105590006F5F7F4F0E94832A019719F4898190E001
:1055A00002C08FEF9FEF2196E2E00C942D33A1E033
:1055B000B0E0EDEDFAE20C941133682FCE010196C4
:1055C0000E94682A9091E800892F807295FF04C09C
:1055D0009091F20080E4891B99819FBF2196E2E0BF
:1055E0000C942D33A1E0B0E0E8EFFAE20C94033321
:1055F000A82E6B01B42E052F80910705882369F032
:10560000E42EF52E8AEF782E8A2D8072582E9AE39A
:10561000692E8A2D8074482E12C08FEF9FEF4FC0E5
:105620008A2D0E94D72A182F81110DC07A947720D5
:10563000A1F361E070E080E090E00E941E24E1149C
:10564000F10471F732C090E0E816F9060CF41E2D53
:10565000812E912CE818F9086A2DCE0101960E943E
:10566000682A552029F01150A0F01092F100FBCFCC
:10567000F601A7FE0AC0115050F084918093F1000A
:105680003196F9CF81918093F1001150D8F7C80C71
:10569000D91C8091E80085FF0FC0E114F10411F4DA
:1056A00041100AC089818FBFCACF5D9884E680937C
:1056B00009058B2D902F03C06092E800F3CF21964F
:1056C000E0E10C941F331092E9001092060510924D
:1056D0000505909304058093030508950F931F9388
:1056E000CF93DF93DB01A40FB51FFB016EEFEA1729
:1056F000FB0791F187FF02C0249101C02081009136
:10570000050510910605C0910305D09104050C17FD
:105710001D07B4F49091E8009570E1F39091E800D2
:1057200092FD1CC02093F1002091050530910605E3
:105730002F5F3F4F2F733327232B11F46093E80023
:1057400020910505309106052F5F3F4F30930605E8
:10575000209305053196CBCFCA0102C08FEF9FEF92
:10576000DF91CF911F910F910895CF93DF93EB01BC
:105770002091E80022FFFCCF6C2F0E945B2A8BEF68
:105780008093E800CE01DF91CF910895A1E0B0E0D1
:10579000ECECFBE20C9411331982CE0101960E94CD
:1057A000C828CE0101960E94A52D898190E02196FE
:1057B000E2E00C942D331F920F920FB60F9211243A
:1057C000CF92DF92EF92FF921F932F933F934F93CD
:1057D0005F936F937F938F939F93AF93BF93EF9359
:1057E000FF93CF93DF93CDB7DEB76197DEBFCDBF19
:1057F0001092E9008091E80083FFE4C068E0CE01E8
:105800000A960E945B2A82EF8093E8009A8597FFB0
:1058100005C08091E80080FFFCCF03C08EEF80932D
:10582000E800892F807609F0A3C08B85811105C01F
:105830001092F1001092F100BEC0282F2D7F213070
:1058400009F4B9C0853049F48091E80080FFFCCFAD
:105850008C8580688093E300AEC0863009F05EC01E
:105860001D85E888F988123069F580E090E00E9493
:10587000632B0E94C62B99E09E012F5F3F4F690169
:10588000F901292F11922A95E9F799831A8391E05A
:105890009E8390E898879AEF99872091050530912B
:1058A0000605275F3F4F3C832B838D83C7010E94F2
:1058B000632B49E050E0B60180E00E946E2B0E940D
:1058C000C62B79C0C7010E94632B123241F482E2D9
:1058D00090E00E94B12D892B09F06DC070C011308D
:1058E00069F488899989089711F4109302058091C9
:1058F0000205811152C067E172E057C0133009F010
:105900005EC08C85882309F44BC0823009F44BC0FB
:10591000813009F054C069E272E047C0873009F471
:105920004EC0883021F481E08093F10044C089307A
:1059300009F041C0937009F042C0E1E0F2E081E07B
:1059400031E096E38093E9003093EB0024912093BB
:10595000EC009093ED008F5F3196853099F78EE7DC
:105960008093EA001092EA008C858093070523C09B
:10597000888999890E94632B8E85811105C0CE018B
:105980000A960E94D42806C08230C9F4CE010A9635
:105990000E94D32D882399F00EC065E072E005C007
:1059A00063E672E002C061E472E0FB01449150E002
:1059B00080E80E946E2B8EEF8093E80003C081E2A6
:1059C0008093EB0061960FB6F894DEBF0FBECDBF9B
:1059D000DF91CF91FF91EF91BF91AF919F918F9107
:1059E0007F916F915F914F913F912F911F91FF9008
:1059F000EF90DF90CF900F900FBE0F901F901895F3
:105A00008093E9008091F200882319F08AE3809363
:105A1000E80008951092070581E08093D70080EA9E
:105A20008093D80082E089BD09B400FEFDCF61E01B
:105A300070E080E090E00E941E2480E98093D8000E
:105A40008CE08093E2001092E000559A209A08952D
:105A50001F920F920FB60F9211242F933F934F93E3
:105A60005F936F937F938F939F93AF93BF93EF93C6
:105A7000FF938091E1001092E10083FF0FC010922C
:105A8000E90091E09093EB001092EC0092E3909388
:105A9000ED001092070598E09093F00082FF26C079
:105AA00083E00E94002D82E00E94702A882321F06A
:105AB0008FEA94E00E947C2880910905882339F0C0
:105AC00080910905815080930905882369F08091B0
:105AD0000805882359F080910805815080930805B6
